{
  "_format": "hh-sol-artifact-1",
  "contractName": "Roulette",
  "sourceName": "contracts/games/Roulette.sol",
  "abi": [
    {
      "inputs": [
        {
          "internalType": "address",
          "name": "bankAddress",
          "type": "address"
        },
        {
          "internalType": "address",
          "name": "chainlinkCoordinatorAddress",
          "type": "address"
        },
        {
          "internalType": "address",
          "name": "LINK_ETH_feedAddress",
          "type": "address"
        }
      ],
      "stateMutability": "nonpayable",
      "type": "constructor"
    },
    {
      "inputs": [],
      "name": "AccessDenied",
      "type": "error"
    },
    {
      "inputs": [],
      "name": "ExcessiveHouseEdge",
      "type": "error"
    },
    {
      "inputs": [],
      "name": "ForbiddenToken",
      "type": "error"
    },
    {
      "inputs": [],
      "name": "InvalidAddress",
      "type": "error"
    },
    {
      "inputs": [
        {
          "internalType": "int256",
          "name": "linkWei",
          "type": "int256"
        }
      ],
      "name": "InvalidLinkWeiPrice",
      "type": "error"
    },
    {
      "inputs": [],
      "name": "NotFulfilled",
      "type": "error"
    },
    {
      "inputs": [],
      "name": "NotPendingBet",
      "type": "error"
    },
    {
      "inputs": [],
      "name": "NumbersNotInRange",
      "type": "error"
    },
    {
      "inputs": [
        {
          "internalType": "address",
          "name": "have",
          "type": "address"
        },
        {
          "internalType": "address",
          "name": "want",
          "type": "address"
        }
      ],
      "name": "OnlyCoordinatorCanFulfill",
      "type": "error"
    },
    {
      "inputs": [
        {
          "internalType": "uint256",
          "name": "minBetAmount",
          "type": "uint256"
        }
      ],
      "name": "UnderMinBetAmount",
      "type": "error"
    },
    {
      "inputs": [],
      "name": "WrongGasValueToCoverFee",
      "type": "error"
    },
    {
      "anonymous": false,
      "inputs": [
        {
          "indexed": false,
          "internalType": "uint256",
          "name": "id",
          "type": "uint256"
        },
        {
          "indexed": false,
          "internalType": "uint256",
          "name": "amount",
          "type": "uint256"
        },
        {
          "indexed": false,
          "internalType": "string",
          "name": "reason",
          "type": "string"
        }
      ],
      "name": "BankCashInFail",
      "type": "event"
    },
    {
      "anonymous": false,
      "inputs": [
        {
          "indexed": false,
          "internalType": "uint256",
          "name": "id",
          "type": "uint256"
        },
        {
          "indexed": false,
          "internalType": "uint256",
          "name": "amount",
          "type": "uint256"
        },
        {
          "indexed": false,
          "internalType": "string",
          "name": "reason",
          "type": "string"
        }
      ],
      "name": "BankTransferFail",
      "type": "event"
    },
    {
      "anonymous": false,
      "inputs": [
        {
          "indexed": false,
          "internalType": "uint256",
          "name": "id",
          "type": "uint256"
        },
        {
          "indexed": false,
          "internalType": "uint256",
          "name": "amount",
          "type": "uint256"
        },
        {
          "indexed": false,
          "internalType": "string",
          "name": "reason",
          "type": "string"
        }
      ],
      "name": "BetAmountFeeTransferFail",
      "type": "event"
    },
    {
      "anonymous": false,
      "inputs": [
        {
          "indexed": false,
          "internalType": "uint256",
          "name": "id",
          "type": "uint256"
        },
        {
          "indexed": false,
          "internalType": "uint256",
          "name": "amount",
          "type": "uint256"
        },
        {
          "indexed": false,
          "internalType": "string",
          "name": "reason",
          "type": "string"
        }
      ],
      "name": "BetAmountTransferFail",
      "type": "event"
    },
    {
      "anonymous": false,
      "inputs": [
        {
          "indexed": false,
          "internalType": "uint256",
          "name": "id",
          "type": "uint256"
        },
        {
          "indexed": false,
          "internalType": "address",
          "name": "user",
          "type": "address"
        },
        {
          "indexed": false,
          "internalType": "uint256",
          "name": "chainlinkVRFCost",
          "type": "uint256"
        }
      ],
      "name": "BetCostRefundFail",
      "type": "event"
    },
    {
      "anonymous": false,
      "inputs": [
        {
          "indexed": false,
          "internalType": "uint256",
          "name": "id",
          "type": "uint256"
        },
        {
          "indexed": false,
          "internalType": "uint256",
          "name": "amount",
          "type": "uint256"
        },
        {
          "indexed": false,
          "internalType": "string",
          "name": "reason",
          "type": "string"
        }
      ],
      "name": "BetProfitTransferFail",
      "type": "event"
    },
    {
      "anonymous": false,
      "inputs": [
        {
          "indexed": false,
          "internalType": "uint256",
          "name": "id",
          "type": "uint256"
        },
        {
          "indexed": false,
          "internalType": "address",
          "name": "user",
          "type": "address"
        },
        {
          "indexed": false,
          "internalType": "uint256",
          "name": "amount",
          "type": "uint256"
        }
      ],
      "name": "BetRefunded",
      "type": "event"
    },
    {
      "anonymous": false,
      "inputs": [
        {
          "indexed": true,
          "internalType": "address",
          "name": "token",
          "type": "address"
        },
        {
          "indexed": false,
          "internalType": "uint256",
          "name": "amount",
          "type": "uint256"
        }
      ],
      "name": "DistributeTokenVRFFees",
      "type": "event"
    },
    {
      "anonymous": false,
      "inputs": [
        {
          "indexed": true,
          "internalType": "address",
          "name": "previousOwner",
          "type": "address"
        },
        {
          "indexed": true,
          "internalType": "address",
          "name": "newOwner",
          "type": "address"
        }
      ],
      "name": "OwnershipTransferred",
      "type": "event"
    },
    {
      "anonymous": false,
      "inputs": [
        {
          "indexed": false,
          "internalType": "address",
          "name": "account",
          "type": "address"
        }
      ],
      "name": "Paused",
      "type": "event"
    },
    {
      "anonymous": false,
      "inputs": [
        {
          "indexed": false,
          "internalType": "uint256",
          "name": "id",
          "type": "uint256"
        },
        {
          "indexed": true,
          "internalType": "address",
          "name": "user",
          "type": "address"
        },
        {
          "indexed": true,
          "internalType": "address",
          "name": "token",
          "type": "address"
        },
        {
          "indexed": false,
          "internalType": "uint40",
          "name": "numbers",
          "type": "uint40"
        }
      ],
      "name": "PlaceBet",
      "type": "event"
    },
    {
      "anonymous": false,
      "inputs": [
        {
          "indexed": false,
          "internalType": "uint256",
          "name": "id",
          "type": "uint256"
        },
        {
          "indexed": true,
          "internalType": "address",
          "name": "user",
          "type": "address"
        },
        {
          "indexed": true,
          "internalType": "address",
          "name": "token",
          "type": "address"
        },
        {
          "indexed": false,
          "internalType": "uint256",
          "name": "amount",
          "type": "uint256"
        },
        {
          "indexed": false,
          "internalType": "uint40",
          "name": "numbers",
          "type": "uint40"
        },
        {
          "indexed": false,
          "internalType": "uint8",
          "name": "rolled",
          "type": "uint8"
        },
        {
          "indexed": false,
          "internalType": "uint256",
          "name": "payout",
          "type": "uint256"
        }
      ],
      "name": "Roll",
      "type": "event"
    },
    {
      "anonymous": false,
      "inputs": [
        {
          "indexed": false,
          "internalType": "address",
          "name": "bank",
          "type": "address"
        }
      ],
      "name": "SetBank",
      "type": "event"
    },
    {
      "anonymous": false,
      "inputs": [
        {
          "indexed": false,
          "internalType": "uint16",
          "name": "requestConfirmations",
          "type": "uint16"
        },
        {
          "indexed": false,
          "internalType": "bytes32",
          "name": "keyHash",
          "type": "bytes32"
        }
      ],
      "name": "SetChainlinkConfig",
      "type": "event"
    },
    {
      "anonymous": false,
      "inputs": [
        {
          "indexed": true,
          "internalType": "address",
          "name": "token",
          "type": "address"
        },
        {
          "indexed": false,
          "internalType": "uint16",
          "name": "houseEdge",
          "type": "uint16"
        }
      ],
      "name": "SetHouseEdge",
      "type": "event"
    },
    {
      "anonymous": false,
      "inputs": [
        {
          "indexed": true,
          "internalType": "address",
          "name": "token",
          "type": "address"
        },
        {
          "indexed": false,
          "internalType": "uint32",
          "name": "callbackGasLimit",
          "type": "uint32"
        }
      ],
      "name": "SetVRFCallbackGasLimit",
      "type": "event"
    },
    {
      "anonymous": false,
      "inputs": [
        {
          "indexed": false,
          "internalType": "address",
          "name": "account",
          "type": "address"
        }
      ],
      "name": "Unpaused",
      "type": "event"
    },
    {
      "inputs": [],
      "name": "bank",
      "outputs": [
        {
          "internalType": "contract IBank",
          "name": "",
          "type": "address"
        }
      ],
      "stateMutability": "view",
      "type": "function"
    },
    {
      "inputs": [
        {
          "internalType": "uint256",
          "name": "",
          "type": "uint256"
        }
      ],
      "name": "bets",
      "outputs": [
        {
          "internalType": "bool",
          "name": "resolved",
          "type": "bool"
        },
        {
          "internalType": "address payable",
          "name": "user",
          "type": "address"
        },
        {
          "internalType": "address",
          "name": "token",
          "type": "address"
        },
        {
          "internalType": "uint256",
          "name": "id",
          "type": "uint256"
        },
        {
          "internalType": "uint256",
          "name": "amount",
          "type": "uint256"
        },
        {
          "internalType": "uint256",
          "name": "blockNumber",
          "type": "uint256"
        },
        {
          "internalType": "uint256",
          "name": "payout",
          "type": "uint256"
        },
        {
          "internalType": "uint256",
          "name": "vrfCost",
          "type": "uint256"
        }
      ],
      "stateMutability": "view",
      "type": "function"
    },
    {
      "inputs": [
        {
          "internalType": "address",
          "name": "token",
          "type": "address"
        }
      ],
      "name": "getChainlinkVRFCost",
      "outputs": [
        {
          "internalType": "uint256",
          "name": "",
          "type": "uint256"
        }
      ],
      "stateMutability": "view",
      "type": "function"
    },
    {
      "inputs": [
        {
          "internalType": "address",
          "name": "user",
          "type": "address"
        },
        {
          "internalType": "uint256",
          "name": "dataLength",
          "type": "uint256"
        }
      ],
      "name": "getLastUserBets",
      "outputs": [
        {
          "components": [
            {
              "components": [
                {
                  "internalType": "bool",
                  "name": "resolved",
                  "type": "bool"
                },
                {
                  "internalType": "address payable",
                  "name": "user",
                  "type": "address"
                },
                {
                  "internalType": "address",
                  "name": "token",
                  "type": "address"
                },
                {
                  "internalType": "uint256",
                  "name": "id",
                  "type": "uint256"
                },
                {
                  "internalType": "uint256",
                  "name": "amount",
                  "type": "uint256"
                },
                {
                  "internalType": "uint256",
                  "name": "blockNumber",
                  "type": "uint256"
                },
                {
                  "internalType": "uint256",
                  "name": "payout",
                  "type": "uint256"
                },
                {
                  "internalType": "uint256",
                  "name": "vrfCost",
                  "type": "uint256"
                }
              ],
              "internalType": "struct Game.Bet",
              "name": "bet",
              "type": "tuple"
            },
            {
              "components": [
                {
                  "internalType": "uint40",
                  "name": "numbers",
                  "type": "uint40"
                },
                {
                  "internalType": "uint8",
                  "name": "rolled",
                  "type": "uint8"
                }
              ],
              "internalType": "struct Roulette.RouletteBet",
              "name": "rouletteBet",
              "type": "tuple"
            }
          ],
          "internalType": "struct Roulette.FullRouletteBet[]",
          "name": "",
          "type": "tuple[]"
        }
      ],
      "stateMutability": "view",
      "type": "function"
    },
    {
      "inputs": [
        {
          "internalType": "address",
          "name": "token",
          "type": "address"
        }
      ],
      "name": "hasPendingBets",
      "outputs": [
        {
          "internalType": "bool",
          "name": "",
          "type": "bool"
        }
      ],
      "stateMutability": "view",
      "type": "function"
    },
    {
      "inputs": [
        {
          "internalType": "bytes[]",
          "name": "data",
          "type": "bytes[]"
        }
      ],
      "name": "multicall",
      "outputs": [
        {
          "internalType": "bytes[]",
          "name": "results",
          "type": "bytes[]"
        }
      ],
      "stateMutability": "nonpayable",
      "type": "function"
    },
    {
      "inputs": [],
      "name": "owner",
      "outputs": [
        {
          "internalType": "address",
          "name": "",
          "type": "address"
        }
      ],
      "stateMutability": "view",
      "type": "function"
    },
    {
      "inputs": [],
      "name": "pause",
      "outputs": [],
      "stateMutability": "nonpayable",
      "type": "function"
    },
    {
      "inputs": [],
      "name": "paused",
      "outputs": [
        {
          "internalType": "bool",
          "name": "",
          "type": "bool"
        }
      ],
      "stateMutability": "view",
      "type": "function"
    },
    {
      "inputs": [
        {
          "internalType": "uint256",
          "name": "requestId",
          "type": "uint256"
        },
        {
          "internalType": "uint256[]",
          "name": "randomWords",
          "type": "uint256[]"
        }
      ],
      "name": "rawFulfillRandomWords",
      "outputs": [],
      "stateMutability": "nonpayable",
      "type": "function"
    },
    {
      "inputs": [
        {
          "internalType": "uint256",
          "name": "id",
          "type": "uint256"
        }
      ],
      "name": "refundBet",
      "outputs": [],
      "stateMutability": "nonpayable",
      "type": "function"
    },
    {
      "inputs": [],
      "name": "renounceOwnership",
      "outputs": [],
      "stateMutability": "nonpayable",
      "type": "function"
    },
    {
      "inputs": [
        {
          "internalType": "uint256",
          "name": "",
          "type": "uint256"
        }
      ],
      "name": "rouletteBets",
      "outputs": [
        {
          "internalType": "uint40",
          "name": "numbers",
          "type": "uint40"
        },
        {
          "internalType": "uint8",
          "name": "rolled",
          "type": "uint8"
        }
      ],
      "stateMutability": "view",
      "type": "function"
    },
    {
      "inputs": [
        {
          "internalType": "contract IBank",
          "name": "_bank",
          "type": "address"
        }
      ],
      "name": "setBank",
      "outputs": [],
      "stateMutability": "nonpayable",
      "type": "function"
    },
    {
      "inputs": [
        {
          "internalType": "uint16",
          "name": "requestConfirmations",
          "type": "uint16"
        },
        {
          "internalType": "bytes32",
          "name": "keyHash",
          "type": "bytes32"
        }
      ],
      "name": "setChainlinkConfig",
      "outputs": [],
      "stateMutability": "nonpayable",
      "type": "function"
    },
    {
      "inputs": [
        {
          "internalType": "address",
          "name": "token",
          "type": "address"
        },
        {
          "internalType": "uint16",
          "name": "houseEdge",
          "type": "uint16"
        }
      ],
      "name": "setHouseEdge",
      "outputs": [],
      "stateMutability": "nonpayable",
      "type": "function"
    },
    {
      "inputs": [
        {
          "internalType": "address",
          "name": "token",
          "type": "address"
        },
        {
          "internalType": "uint32",
          "name": "callbackGasLimit",
          "type": "uint32"
        }
      ],
      "name": "setVRFCallbackGasLimit",
      "outputs": [],
      "stateMutability": "nonpayable",
      "type": "function"
    },
    {
      "inputs": [
        {
          "internalType": "address",
          "name": "",
          "type": "address"
        }
      ],
      "name": "tokens",
      "outputs": [
        {
          "internalType": "uint16",
          "name": "houseEdge",
          "type": "uint16"
        },
        {
          "internalType": "uint64",
          "name": "pendingCount",
          "type": "uint64"
        },
        {
          "internalType": "uint32",
          "name": "VRFCallbackGasLimit",
          "type": "uint32"
        },
        {
          "internalType": "uint256",
          "name": "VRFFees",
          "type": "uint256"
        }
      ],
      "stateMutability": "view",
      "type": "function"
    },
    {
      "inputs": [
        {
          "internalType": "address",
          "name": "newOwner",
          "type": "address"
        }
      ],
      "name": "transferOwnership",
      "outputs": [],
      "stateMutability": "nonpayable",
      "type": "function"
    },
    {
      "inputs": [
        {
          "internalType": "uint40",
          "name": "numbers",
          "type": "uint40"
        },
        {
          "internalType": "address",
          "name": "token",
          "type": "address"
        },
        {
          "internalType": "uint256",
          "name": "tokenAmount",
          "type": "uint256"
        }
      ],
      "name": "wager",
      "outputs": [],
      "stateMutability": "payable",
      "type": "function"
    },
    {
      "inputs": [
        {
          "internalType": "address",
          "name": "token",
          "type": "address"
        }
      ],
      "name": "withdrawTokensVRFFees",
      "outputs": [],
      "stateMutability": "nonpayable",
      "type": "function"
    }
  ],
  "bytecode": "0x60c06040523480156200001157600080fd5b50604051620034ac380380620034ac8339810160408190526200003491620002ad565b82826001838262000045336200015c565b6000805460ff60a01b191690556001600160a01b0390811660805260018055811615806200007a57506001600160a01b038316155b15620000995760405163e6c4247b60e01b815260040160405180910390fd5b61ffff821615801590620000b357506101f48261ffff1611155b620001055760405162461bcd60e51b815260206004820152601e60248201527f57726f6e6720436861696e6c696e6b204e756d52616e646f6d576f726473000060448201526064015b60405180910390fd5b6200011084620001ac565b600480546001600160a01b039485166001600160a01b03199091161790556002805461ffff909316620100000263ffff000019909316929092179091551660a05250620002f792505050565b600080546001600160a01b038381166001600160a01b0319831681178455604051919092169283917f8be0079c531659141344cd1fd0a4f28419497f9722a3daafe3b4186f6b6457e09190a35050565b620001b662000232565b6001600160a01b038116620001de5760405163e6c4247b60e01b815260040160405180910390fd5b600880546001600160a01b0319166001600160a01b0383169081179091556040519081527f10f5824683d64a0712038f2244e046b174a1cc57fbb8556bfda5ffb2612440679060200160405180910390a150565b6000546001600160a01b031633146200028e5760405162461bcd60e51b815260206004820181905260248201527f4f776e61626c653a2063616c6c6572206973206e6f7420746865206f776e65726044820152606401620000fc565b565b80516001600160a01b0381168114620002a857600080fd5b919050565b600080600060608486031215620002c357600080fd5b620002ce8462000290565b9250620002de6020850162000290565b9150620002ee6040850162000290565b90509250925092565b60805160a0516131886200032460003960006109700152600081816105ff015261064101526131886000f3fe60806040526004361061012a5760003560e01c80638456cb59116100ab578063be27e5301161006f578063be27e530146103f2578063c2fb579f14610453578063e1fdb4b414610480578063e32fe504146104a0578063e4860339146104c0578063f2fde38b1461055157600080fd5b80638456cb59146103445780638da5cb5b14610359578063982c3fdd14610377578063a23cd7df146103a5578063ac9650d8146103c557600080fd5b80635c975abb116100f25780635c975abb14610298578063707cd55e146102b7578063715018a6146102d757806376cdb03b146102ec57806378bcde221461032457600080fd5b8063090d23b91461012f5780631fe543e31461015157806322af00fa14610171578063594043fd1461022e5780635c592e7214610285575b600080fd5b34801561013b57600080fd5b5061014f61014a3660046127c9565b610571565b005b34801561015d57600080fd5b5061014f61016c366004612828565b6105f4565b34801561017d57600080fd5b506101e061018c3660046128da565b6005602081905260009182526040909120805460018201546002830154600384015460048501549585015460069095015460ff8516966101009095046001600160a01b039081169694169492939192919088565b6040805198151589526001600160a01b0397881660208a015295909616948701949094526060860192909252608085015260a084015260c083015260e0820152610100015b60405180910390f35b34801561023a57600080fd5b506102756102493660046127c9565b6001600160a01b03166000908152600760205260409020546201000090046001600160401b0316151590565b6040519015158152602001610225565b61014f6102933660046128f3565b610681565b3480156102a457600080fd5b50600054600160a01b900460ff16610275565b3480156102c357600080fd5b5061014f6102d23660046127c9565b61077b565b3480156102e357600080fd5b5061014f6108a3565b3480156102f857600080fd5b5060085461030c906001600160a01b031681565b6040516001600160a01b039091168152602001610225565b34801561033057600080fd5b5061014f61033f366004612955565b6108b7565b34801561035057600080fd5b5061014f610941565b34801561036557600080fd5b506000546001600160a01b031661030c565b34801561038357600080fd5b506103976103923660046127c9565b61096b565b604051908152602001610225565b3480156103b157600080fd5b5061014f6103c036600461298a565b610b1e565b3480156103d157600080fd5b506103e56103e03660046129b4565b610b7c565b6040516102259190612a78565b3480156103fe57600080fd5b5061043461040d3660046128da565b60096020526000908152604090205464ffffffffff81169065010000000000900460ff1682565b6040805164ffffffffff909316835260ff909116602083015201610225565b34801561045f57600080fd5b5061047361046e366004612ada565b610c71565b6040516102259190612af8565b34801561048c57600080fd5b5061014f61049b3660046128da565b610da8565b3480156104ac57600080fd5b5061014f6104bb366004612bc6565b611084565b3480156104cc57600080fd5b506105196104db3660046127c9565b6007602052600090815260409020805460019091015461ffff8216916201000081046001600160401b031691600160501b90910463ffffffff169084565b6040805161ffff90951685526001600160401b03909316602085015263ffffffff909116918301919091526060820152608001610225565b34801561055d57600080fd5b5061014f61056c3660046127c9565b6110f7565b610579611170565b6001600160a01b0381166105a05760405163e6c4247b60e01b815260040160405180910390fd5b600880546001600160a01b0319166001600160a01b0383169081179091556040519081527f10f5824683d64a0712038f2244e046b174a1cc57fbb8556bfda5ffb2612440679060200160405180910390a150565b336001600160a01b037f000000000000000000000000000000000000000000000000000000000000000016146106735760405163073e64fd60e21b81523360048201526001600160a01b037f00000000000000000000000000000000000000000000000000000000000000001660248201526044015b60405180910390fd5b61067d82826111ca565b5050565b6106896112fa565b64ffffffffff831615806106bb575060016106a660256002612cf9565b6106b09190612d08565b8364ffffffffff1610155b156106d9576040516327df59e960e21b815260040160405180910390fd5b60006106f183836106ec61271088611347565b6113bd565b606081018051600090815260096020908152604091829020805464ffffffffff191664ffffffffff8a16908117909155828501518286015194518451908152928301919091529394506001600160a01b0393841693909216917f041b9daf484d2f7472d3d2258f13d1a69325f6218b893785e5adb40498e3dd1a910160405180910390a350505050565b6001600160a01b038116600090815260076020526040902060010154801561067d576001600160a01b03828116600081815260076020526040808220600101919091556008549051636e0be4e560e11b815260048101929092529091169063dc17c9ca90602401602060405180830381865afa1580156107ff573d6000803e3d6000fd5b505050506040513d601f19601f820116820180604052508101906108239190612d1b565b6001600160a01b03166108fc829081150290604051600060405180830381858888f1935050505015801561085b573d6000803e3d6000fd5b50816001600160a01b03167f1d3f9fc0810d9e182e982399cb91de735f6c415728fb9bc42664b84087c2af568260405161089791815260200190565b60405180910390a25050565b6108ab611170565b6108b560006119d5565b565b6108bf611170565b6101908161ffff1611156108e657604051631c2d5dd360e21b815260040160405180910390fd5b6001600160a01b038216600081815260076020908152604091829020805461ffff191661ffff861690811790915591519182527f7dfd3ecb8ac83242184c019f85ca408558f2ac0a5a19af6be2a4aee697eac8129101610897565b610949611170565b600054600160a01b900460ff1615610963576108b5611a25565b6108b5611a7a565b6000807f00000000000000000000000000000000000000000000000000000000000000006001600160a01b031663feaf968c6040518163ffffffff1660e01b815260040160a060405180830381865afa1580156109cc573d6000803e3d6000fd5b505050506040513d601f19601f820116820180604052508101906109f09190612d52565b50505091505060008113610a1a576040516321ea67b360e11b81526004810182905260240161066a565b6004805460408051632fdde06960e11b815290516000936001600160a01b0390931692635fbbc0d292808201926101209290918290030181865afa158015610a66573d6000803e3d6000fd5b505050506040513d601f19601f82011682018060405250810190610a8a9190612db5565b50505050505050509050670de0b6b3a7640000828263ffffffff1664e8d4a51000610ab59190612e6b565b610abf9190612e6b565b610ac99190612ea0565b6001600160a01b038516600090815260076020526040902054610afc90600160501b900463ffffffff166201c138612eb4565b610b0c9063ffffffff163a612e6b565b610b169190612ed1565b949350505050565b610b26611170565b6002805461ffff191661ffff8416908117909155600382905560408051918252602082018390527f312eab8f28128692f3404f828c413db540bc15a246c46d0b40e3c004b947c437910160405180910390a15050565b6060816001600160401b03811115610b9657610b966127e6565b604051908082528060200260200182016040528015610bc957816020015b6060815260200190600190039081610bb45790505b50905060005b82811015610c6957610c3930858584818110610bed57610bed612ee4565b9050602002810190610bff9190612efa565b8080601f016020809104026020016040519081016040528093929190818152602001838380828437600092019190915250611abd92505050565b828281518110610c4b57610c4b612ee4565b60200260200101819052508080610c6190612f47565b915050610bcf565b505b92915050565b60606000610c7f8484611ae2565b9050600081516001600160401b03811115610c9c57610c9c6127e6565b604051908082528060200260200182016040528015610cd557816020015b610cc2612717565b815260200190600190039081610cba5790505b50905060005b8251811015610d9f576040518060400160405280848381518110610d0157610d01612ee4565b6020026020010151815260200160096000868581518110610d2457610d24612ee4565b60209081029190910181015160600151825281810192909252604090810160002081518083019092525464ffffffffff8116825265010000000000900460ff169181019190915290528251839083908110610d8157610d81612ee4565b60200260200101819052508080610d9790612f47565b915050610cdb565b50949350505050565b600260015403610dfa5760405162461bcd60e51b815260206004820152601f60248201527f5265656e7472616e637947756172643a207265656e7472616e742063616c6c00604482015260640161066a565b6002600190815560008281526005602052604090208054909160ff90911615159003610e39576040516310d5f2bd60e11b815260040160405180910390fd5b6004810154610e4990601e612ed1565b431015610e69576040516303de361f60e11b815260040160405180910390fd5b60018101546001600160a01b0316600090815260076020526040902080546201000090046001600160401b0316816002610ea283612f60565b82546001600160401b039182166101009390930a928302919092021990911617905550815460ff191660019081178355600383015460058401558201546001600160a01b0316610f3357815460038301546040516101009092046001600160a01b0316916108fc82150291906000818181858888f19350505050158015610f2d573d6000803e3d6000fd5b50610f5e565b815460038301546001840154610f5e926001600160a01b039182169261010090910490911690611cb8565b81546003830154604080518681526101009093046001600160a01b031660208401528201527ff22517a5eae9f54be712c3150eca5ba925d233687b223c2ebf89272f12ee08659060600160405180910390a1600682015460018201548111801590610fc95750804710155b1561102a5780826001016000828254610fe29190612d08565b909155505082546040516101009091046001600160a01b0316906108fc8315029083906000818181858888f19350505050158015611024573d6000803e3d6000fd5b5061107a565b8254604080518681526101009092046001600160a01b0316602083015281018290527f5562f3770dc6771b10ced979e143188578972781dc3cb3ad66c125e7d1797c869060600160405180910390a15b5050600180555050565b61108c611170565b6001600160a01b038216600081815260076020908152604091829020805463ffffffff60501b1916600160501b63ffffffff87169081029190911790915591519182527f9edb52532d26512950c91a14b132f6df3cd06bfb49e795e03e56736121cd24a89101610897565b6110ff611170565b6001600160a01b0381166111645760405162461bcd60e51b815260206004820152602660248201527f4f776e61626c653a206e6577206f776e657220697320746865207a65726f206160448201526564647265737360d01b606482015260840161066a565b61116d816119d5565b50565b6000546001600160a01b031633146108b55760405162461bcd60e51b815260206004820181905260248201527f4f776e61626c653a2063616c6c6572206973206e6f7420746865206f776e6572604482015260640161066a565b600082815260096020908152604080832060059092528220835191929091602590859083906111fb576111fb612ee4565b602002602001015161120d9190612f83565b835460ff8216650100000000000265ff00000000001982168117865591925060009161126f91859164ffffffffff90811691161761124c856002612cf9565b600387015488549190921615159161126a9164ffffffffff16611347565b611d20565b6001840154845460028601546003870154885460408051938452602084019290925264ffffffffff169082015260ff86166060820152608081018490529293506001600160a01b0391821692610100909104909116907f31f298f8512cd20a0c9f7631142286da4f52772d89b405b5c68274c4c64cb4339060a00160405180910390a3505050505050565b600054600160a01b900460ff16156108b55760405162461bcd60e51b815260206004820152601060248201526f14185d5cd8589b194e881c185d5cd95960821b604482015260640161066a565b6000603f7e0104104104104104104104104104104104104104104104104104104104104161139679200000000010000000000800000000040000000002000000000164ffffffffff8616612e6b565b166113a19190612f83565b6113ac602585612e6b565b6113b69190612ea0565b9392505050565b6113c561275b565b6113cd6112fa565b60026001540361141f5760405162461bcd60e51b815260206004820152601f60248201527f5265656e7472616e637947756172643a207265656e7472616e742063616c6c00604482015260640161066a565b600260015560085460405163cbe230c360e01b81526001600160a01b0386811660048301529091169063cbe230c390602401602060405180830381865afa15801561146e573d6000803e3d6000fd5b505050506040513d601f19601f820116820180604052508101906114929190612f97565b15156000036114b45760405163c455905560e01b815260040160405180910390fd5b336001600160a01b038516156000816114cd57346114d7565b6114d78634612d08565b90506000826114e657866114f0565b6114f08234612d08565b6001600160a01b03891660009081526007602052604081209192506115148a61096b565b9050606461152382600a612e6b565b61152d9190612ea0565b6115379082612d08565b841015611557576040516305ab677f60e11b815260040160405180910390fd5b8382600101600082825461156b9190612ed1565b909155505060085460405163f6b2a2f160e01b81526001600160a01b038c81166004830152600093509091169063f6b2a2f190602401602060405180830381865afa1580156115be573d6000803e3d6000fd5b505050506040513d601f19601f820116820180604052508101906115e29190612fb9565b905080831015611607576040516289563d60e21b81526004810182905260240161066a565b6008546040516313c59cef60e11b81526001600160a01b038c81166004830152602482018b9052600092169063278b39de90604401602060405180830381865afa158015611659573d6000803e3d6000fd5b505050506040513d601f19601f8201168201806040525081019061167d9190612fb9565b9050808411156116d25785156116ce576001600160a01b0387166108fc6116a48387612d08565b6040518115909202916000818181858888f193505050501580156116cc573d6000803e3d6000fd5b505b8093505b50506004805460035460085460405163279e341560e01b81526001600160a01b038e81169582019590955260009493841693635d3b1d309392169063279e341590602401602060405180830381865afa158015611733573d6000803e3d6000fd5b505050506040513d601f19601f820116820180604052508101906117579190612fd2565b600254865460405160e086901b6001600160e01b031916815260048101949094526001600160401b03909216602484015261ffff8082166044850152600160501b90920463ffffffff16606484015262010000900416608482015260a4016020604051808303816000875af11580156117d4573d6000803e3d6000fd5b505050506040513d601f19601f820116820180604052508101906117f89190612fb9565b90506000604051806101000160405280600015158152602001886001600160a01b031681526020018c6001600160a01b031681526020018381526020018581526020014381526020016000815260200186815250905060066000886001600160a01b03166001600160a01b03168152602001908152602001600020829080600181540180825580915050600190039060005260206000200160009091909190915055806005600084815260200190815260200160002060008201518160000160006101000a81548160ff02191690831515021790555060208201518160000160016101000a8154816001600160a01b0302191690836001600160a01b0316021790555060408201518160010160006101000a8154816001600160a01b0302191690836001600160a01b03160217905550606082015181600201556080820151816003015560a0820151816004015560c0820151816005015560e0820151816006015590505082600001600281819054906101000a90046001600160401b03168092919061198490612ffb565b91906101000a8154816001600160401b0302191690836001600160401b0316021790555050856119c3576119c36001600160a01b038c1688308761239a565b600180559a9950505050505050505050565b600080546001600160a01b038381166001600160a01b0319831681178455604051919092169283917f8be0079c531659141344cd1fd0a4f28419497f9722a3daafe3b4186f6b6457e09190a35050565b611a2d6123d8565b6000805460ff60a01b191690557f5db9ee0a495bf2e6ff9c91a7834c1ba4fdd244a5e8aa4e537bd38aeae4b073aa335b6040516001600160a01b03909116815260200160405180910390a1565b611a826112fa565b6000805460ff60a01b1916600160a01b1790557f62e78cea01bee320cd4e420270b5ea74000d11b0c9f74754ebdbfc544b05a258611a5d3390565b60606113b6838360405180606001604052806027815260200161312c60279139612428565b6001600160a01b0382166000908152600660209081526040808320805482518185028101850190935280835260609493830182828015611b4157602002820191906000526020600020905b815481526020019060010190808311611b2d575b5050835193945050505083811015611b57578093505b6000846001600160401b03811115611b7157611b716127e6565b604051908082528060200260200182016040528015611baa57816020015b611b9761275b565b815260200190600190039081611b8f5790505b5090508415611caf576000825b611bc18785612d08565b811115611cac576005600086611bd8600185612d08565b81518110611be857611be8612ee4565b602090810291909101810151825281810192909252604090810160002081516101008082018452825460ff811615158352046001600160a01b03908116948201949094526001820154909316918301919091526002810154606083015260038101546080830152600481015460a0830152600581015460c08301526006015460e08201528351849084908110611c8057611c80612ee4565b60200260200101819052508180611c9690612f47565b9250508080611ca490613021565b915050611bb7565b50505b95945050505050565b6040516001600160a01b038316602482015260448101829052611d1b90849063a9059cbb60e01b906064015b60408051601f198184030181529190526020810180516001600160e01b03166001600160e01b031990931692909217909152612505565b505050565b825460009060ff16151560011480611d455750835461010090046001600160a01b0316155b15611d63576040516310d5f2bd60e11b815260040160405180910390fd5b835460ff1916600190811785558401546001600160a01b0316600081815260076020526040902080546001600160401b036201000090910416906002611da883612f60565b82546001600160401b039182166101009390930a928302919092021990911617905550600385015460018601546001600160a01b03161585156121bc57865461010090046001600160a01b03166000611e018488612d08565b90506000611e0f86866125d7565b90506000611e1d87846125d7565b90506000611e2b8284612ed1565b9050611e37818b612d08565b99506000611e458489612d08565b90506000611e538487612d08565b90508715611ef4576040516001600160a01b0388169083156108fc029084906000818181858888f19350505050611eef5760028e0154604080519182526020820184905260608282018190526015908301527411d85cc81d1bdad95b881cd95b990819985a5b1959605a1b6080830152517f2f47628dd4a5df2cb8dcf9bf22dcb68db93b798e9666e48454fdf5c3488c378d9181900360a00190a15b6120be565b60405163a9059cbb60e01b81526001600160a01b038881166004830152602482018490528b169063a9059cbb906044016020604051808303816000875af1925050508015611f5f575060408051601f3d908101601f19168201909252611f5c91810190612f97565b60015b611fdb57611f6b613038565b806308c379a003611fcf5750611f7f613054565b80611f8a5750611fd1565b7f2f47628dd4a5df2cb8dcf9bf22dcb68db93b798e9666e48454fdf5c3488c378d8f600201548483604051611fc1939291906130dd565b60405180910390a150611fdd565b505b3d6000803e3d6000fd5b505b60085460405163a9059cbb60e01b81526001600160a01b03918216600482015260248101879052908b169063a9059cbb906044016020604051808303816000875af192505050801561204c575060408051601f3d908101601f1916820190925261204991810190612f97565b60015b6120bc57612058613038565b806308c379a003611fcf575061206c613054565b806120775750611fd1565b7ffa916ddbcce76584ab5323754780c39d03cd75048d5bfb4361e966a270d482528f6002015487836040516120ae939291906130dd565b60405180910390a1506120be565b505b6008546001600160a01b0316631f615023896120db5760006120dd565b865b6040516001600160e01b031960e084901b1681526001600160a01b03808c1660048301528e16602482015260448101859052606481018790526084016000604051808303818588803b15801561213257600080fd5b505af193505050508015612144575060015b6121b057612150613038565b806308c379a003611fcf5750612164613054565b8061216f5750611fd1565b7f4faefcbc151a3b06dfca7dd0353fc453e246fee39a129b0dd0f89255b8317a158f6002015483836040516121a6939291906130dd565b60405180910390a1505b50505050505050612389565b60009450806122a65760085460405163a9059cbb60e01b81526001600160a01b039182166004820152602481018490529084169063a9059cbb906044016020604051808303816000875af1925050508015612234575060408051601f3d908101601f1916820190925261223191810190612f97565b60015b6122a457612240613038565b806308c379a003611fcf5750612254613054565b8061225f5750611fd1565b7f6083085f60af3af3b5f0ac3fc19411dc014dff48425ef2707ebcf7059582e45288600201548483604051612296939291906130dd565b60405180910390a1506122a6565b505b6008546001600160a01b0316633138809d826122c35760006122c5565b835b6040516001600160e01b031960e084901b1681526001600160a01b0387166004820152602481018690526044016000604051808303818588803b15801561230b57600080fd5b505af19350505050801561231d575060015b61238957612329613038565b806308c379a003611fcf575061233d613054565b806123485750611fd1565b7fda6ed7532ab456201ccb34e59035ea00254ed76e71e7d47d04b4287b302153a88860020154848360405161237f939291906130dd565b60405180910390a1505b505050506005929092018290555090565b6040516001600160a01b03808516602483015283166044820152606481018290526123d29085906323b872dd60e01b90608401611ce4565b50505050565b600054600160a01b900460ff166108b55760405162461bcd60e51b815260206004820152601460248201527314185d5cd8589b194e881b9bdd081c185d5cd95960621b604482015260640161066a565b60606001600160a01b0384163b6124905760405162461bcd60e51b815260206004820152602660248201527f416464726573733a2064656c65676174652063616c6c20746f206e6f6e2d636f6044820152651b9d1c9858dd60d21b606482015260840161066a565b600080856001600160a01b0316856040516124ab91906130fc565b600060405180830381855af49150503d80600081146124e6576040519150601f19603f3d011682016040523d82523d6000602084013e6124eb565b606091505b50915091506124fb828286612603565b9695505050505050565b600061255a826040518060400160405280602081526020017f5361666545524332303a206c6f772d6c6576656c2063616c6c206661696c6564815250856001600160a01b031661263c9092919063ffffffff16565b805190915015611d1b57808060200190518101906125789190612f97565b611d1b5760405162461bcd60e51b815260206004820152602a60248201527f5361666545524332303a204552433230206f7065726174696f6e20646964206e6044820152691bdd081cdd58d8d9595960b21b606482015260840161066a565b6001600160a01b038216600090815260076020526040812054612710906113ac90849061ffff16612e6b565b606083156126125750816113b6565b8251156126225782518084602001fd5b8160405162461bcd60e51b815260040161066a9190613118565b6060610b168484600085856001600160a01b0385163b61269e5760405162461bcd60e51b815260206004820152601d60248201527f416464726573733a2063616c6c20746f206e6f6e2d636f6e7472616374000000604482015260640161066a565b600080866001600160a01b031685876040516126ba91906130fc565b60006040518083038185875af1925050503d80600081146126f7576040519150601f19603f3d011682016040523d82523d6000602084013e6126fc565b606091505b509150915061270c828286612603565b979650505050505050565b604051806040016040528061272a61275b565b81526020016127566040518060400160405280600064ffffffffff168152602001600060ff1681525090565b905290565b60405180610100016040528060001515815260200160006001600160a01b0316815260200160006001600160a01b0316815260200160008152602001600081526020016000815260200160008152602001600081525090565b6001600160a01b038116811461116d57600080fd5b6000602082840312156127db57600080fd5b81356113b6816127b4565b634e487b7160e01b600052604160045260246000fd5b601f8201601f191681016001600160401b0381118282101715612821576128216127e6565b6040525050565b6000806040838503121561283b57600080fd5b823591506020808401356001600160401b038082111561285a57600080fd5b818601915086601f83011261286e57600080fd5b813581811115612880576128806127e6565b8060051b9150604051612895858401826127fc565b818152918301840191848101898411156128ae57600080fd5b938501935b838510156128ca57843581529385019385016128b3565b5080955050505050509250929050565b6000602082840312156128ec57600080fd5b5035919050565b60008060006060848603121561290857600080fd5b833564ffffffffff8116811461291d57600080fd5b9250602084013561292d816127b4565b929592945050506040919091013590565b803561ffff8116811461295057600080fd5b919050565b6000806040838503121561296857600080fd5b8235612973816127b4565b91506129816020840161293e565b90509250929050565b6000806040838503121561299d57600080fd5b6129a68361293e565b946020939093013593505050565b600080602083850312156129c757600080fd5b82356001600160401b03808211156129de57600080fd5b818501915085601f8301126129f257600080fd5b813581811115612a0157600080fd5b8660208260051b8501011115612a1657600080fd5b60209290920196919550909350505050565b60005b83811015612a43578181015183820152602001612a2b565b50506000910152565b60008151808452612a64816020860160208601612a28565b601f01601f19169290920160200192915050565b6000602080830181845280855180835260408601915060408160051b870101925083870160005b82811015612acd57603f19888603018452612abb858351612a4c565b94509285019290850190600101612a9f565b5092979650505050505050565b60008060408385031215612aed57600080fd5b82356129a6816127b4565b602080825282518282018190526000919060409081850190868401855b82811015612ba75781518051805115158652878101516001600160a01b0390811689880152878201511687870152606080820151908701526080808201519087015260a0808201519087015260c0808201519087015260e09081015190860152860151805164ffffffffff166101008601526020015160ff166101208501526101409093019290850190600101612b15565b5091979650505050505050565b63ffffffff8116811461116d57600080fd5b60008060408385031215612bd957600080fd5b8235612be4816127b4565b91506020830135612bf481612bb4565b809150509250929050565b634e487b7160e01b600052601160045260246000fd5b600181815b80851115612c50578160001904821115612c3657612c36612bff565b80851615612c4357918102915b93841c9390800290612c1a565b509250929050565b600082612c6757506001610c6b565b81612c7457506000610c6b565b8160018114612c8a5760028114612c9457612cb0565b6001915050610c6b565b60ff841115612ca557612ca5612bff565b50506001821b610c6b565b5060208310610133831016604e8410600b8410161715612cd3575081810a610c6b565b612cdd8383612c15565b8060001904821115612cf157612cf1612bff565b029392505050565b60006113b660ff841683612c58565b81810381811115610c6b57610c6b612bff565b600060208284031215612d2d57600080fd5b81516113b6816127b4565b805169ffffffffffffffffffff8116811461295057600080fd5b600080600080600060a08688031215612d6a57600080fd5b612d7386612d38565b9450602086015193506040860151925060608601519150612d9660808701612d38565b90509295509295909350565b805162ffffff8116811461295057600080fd5b60008060008060008060008060006101208a8c031215612dd457600080fd5b8951612ddf81612bb4565b60208b0151909950612df081612bb4565b60408b0151909850612e0181612bb4565b60608b0151909750612e1281612bb4565b60808b0151909650612e2381612bb4565b9450612e3160a08b01612da2565b9350612e3f60c08b01612da2565b9250612e4d60e08b01612da2565b9150612e5c6101008b01612da2565b90509295985092959850929598565b6000816000190483118215151615612e8557612e85612bff565b500290565b634e487b7160e01b600052601260045260246000fd5b600082612eaf57612eaf612e8a565b500490565b63ffffffff818116838216019080821115610c6957610c69612bff565b80820180821115610c6b57610c6b612bff565b634e487b7160e01b600052603260045260246000fd5b6000808335601e19843603018112612f1157600080fd5b8301803591506001600160401b03821115612f2b57600080fd5b602001915036819003821315612f4057600080fd5b9250929050565b600060018201612f5957612f59612bff565b5060010190565b60006001600160401b03821680612f7957612f79612bff565b6000190192915050565b600082612f9257612f92612e8a565b500690565b600060208284031215612fa957600080fd5b815180151581146113b657600080fd5b600060208284031215612fcb57600080fd5b5051919050565b600060208284031215612fe457600080fd5b81516001600160401b03811681146113b657600080fd5b60006001600160401b0380831681810361301757613017612bff565b6001019392505050565b60008161303057613030612bff565b506000190190565b600060033d11156130515760046000803e5060005160e01c5b90565b600060443d10156130625790565b6040516003193d81016004833e81513d6001600160401b03816024840111818411171561309157505050505090565b82850191508151818111156130a95750505050505090565b843d87010160208285010111156130c35750505050505090565b6130d2602082860101876127fc565b509095945050505050565b838152826020820152606060408201526000611caf6060830184612a4c565b6000825161310e818460208701612a28565b9190910192915050565b6020815260006113b66020830184612a4c56fe416464726573733a206c6f772d6c6576656c2064656c65676174652063616c6c206661696c6564a264697066735822122087c004ef1df04c7c4513e31acf8bc201bb6b6b829e916deb09005b408ac1833064736f6c63430008100033",
  "linkReferences": {},
  "deployedLinkReferences": {}
}